:020000040800F2
:10180000180D0020D51800084937000821320008BB
:1018100000000000000000000000000000000000C8
:101820000000000000000000000000004D3700082C
:1018300000000000000000004B370008293C0008B1
:10184000E718000800000000E7180008E718000883
:10185000E7180008E7180008E7180008E71800086C
:1018600000000000ED1B0008E7180008E71800085A
:10187000CD190008E7180008E7180008000000006C
:10188000E71800080000000000000000E71800084A
:1018900000000000E7180008E718000825320008DB
:1018A000E7180008E7180008E7180008E71800081C
:1018B000E718000800000000000000000000000021
:1018C0000348854600F070F8004800471D3F0008B7
:1018D000180D00200448804704480047FEE7FEE753
:1018E000FEE7FEE7FEE7FEE7D53C0008C11800086A
:1018F00030B50B46014600202022012409E00D46A8
:10190000D5409D4205D31D469540491B254695402F
:1019100040191546521E002DF1DC30BD70B5002473
:101920002546002801DA01244042002901DA012578
:101930004942FFF7DDFFAC4200D04042002C00D00E
:10194000494270BD03460B439B0703D009E008C919
:10195000121F08C0042AFAD203E00B780370401C5F
:10196000491C521EF9D27047D2B201E00270401CED
:10197000491EFBD270470022F6E710B513460A460F
:1019800004461946FFF7F0FF204610BD10B5484346
:10199000044602F087FC002805D00021002C02D06C
:1019A000641E0155FAE710BD064C0125064E05E000
:1019B000E36807CC2B430C3C98471034B442F7D370
:1019C000FFF782FF104300083043000880B502484B
:1019D00000F0F9FC80BDC046E0030020F8B50446E5
:1019E0002068816800250427394221D081680222BD
:1019F000114205D181687A4A0A4010211143816061
:101A000001F07EFB064620688068384210D001F065
:101A100077FB801B0328F6D3206880683842F2D019
:101A2000A06D10210143A165E06D01252843E0650B
:101A3000284601B0F0BDC04610B50146886A836DE6
:101A4000826D5024234206D0D20624D4006D426B0E
:101A50000846904710BD01214B021A438265026877
:101A6000D3680324A40223421FD1837E002B1CD100
:101A700013680824234218D09368042423420DD10C
:101A800053680C24A3435360FF220232836D9343B7
:101A90000B43836509E000F095FC10BD826D2023A7
:101AA00013438365C26D0A43C26500F06FFB10BD2E
:101AB00080B5806A816D40220A438265C16D04222F
:101AC0000A43C26500F07EFC80BD80B5806A00F0EC
:101AD0001FFC80BDF8B50446206883688268012534
:101AE0002A40002702210B4226D1002A24D08268F6
:101AF00005231340012B17D18268394B13400B4348
:101B000083600321016001F0FBFA064620688068CB
:101B10000125284210D001F0F3FA801B0328F5D3E9
:101B2000206880682842F1D0A06D10210143A16592
:101B3000E06D2843E06500E03D46284601B0F0BD79
:101B4000F8B50546002700972868816801242142DE
:101B500041D18168E94B1A462F32114207D0A86D56
:101B600010210143A965E86D2043E86534E08168F0
:101B70001940012421438160E005E14909680142DF
:101B80000CD0184800681849FFF7B2FE401C01E06D
:101B90000098401E009000980028F9D1687E012826
:101BA00019D001F0ADFA064628680168214212D129
:101BB0008168214205D18168D04A114001220A433F
:101BC000826001F09DFA801B0328EDD3286800682D
:101BD0002042E9D1C3E73C46204601B0F0BDC046F3
:101BE000E8FFFF7F38010020400D030080B5024868
:101BF00000F034FF80BDC0464404002010B5044608
:101C00000948216C09188030032291436164A06463
:101C1000207808381421FFF76BFE1F2101400120B6
:101C20008840E06410BDC0460008024010B5084975
:101C300042683F2313405A1E93005B18403103242F
:101C400014400122A24003654165826510BDC04673
:101C50000009024070B5846CC56C6560046D002C91
:101C600002D0446D856D6560046C1C2525400124FF
:101C7000AC40084D2E6826432E600468636080687F
:101C80001028134600D00B46A360102800D0114640
:101C9000E16070BD04000240EFF3108072B6FEE711
:101CA000B0B505490C68012525430D600260BFF3FE
:101CB0006F8F4360B0BDC0461420024070B5012252
:101CC0009404244B5D6825435D60EFF31084EFF3CB
:101CD000108572B6002502E040C940C06D1CEEB20E
:101CE000402EF9D3100419680142FBD184F3108807
:101CF00070BDC046F8B50446164E01F001FA05461F
:101D0000012738043168014208D0601CF8D001F086
:101D1000F7F9411B0320A142F2D317E030680E49C6
:101D20004A1C32600840002803D00C49486001205A
:101D30000CE03168BA040020114207D0601CF8D0D2
:101D400001F0DEF9411B0320A142F2D3C0B201B081
:101D5000F0BDC04610200240FA830000A00400201D
:101D6000FEB50F490A68012002430A600A68024072
:101D70000192019A0A6802231A430A60096819400D
:101D800001910199402101910021059102AA0BC204
:101D90000520000701A901F0B3F806B080BDC046D8
:101DA00034100240F0B587B004460020069054205D
:101DB000215C274654370220012962D001253D705D
:101DC0002046FFF787FE2668B168A26D0495294278
:101DD00048D10190812149008A43022002900243A8
:101DE000A265F068F168434A0A40F2604249014046
:101DF00000913046B43003900020404D414A0146E6
:101E000015E0B3682B4018351D43B560B368002B4F
:101E100006DA069B5B1C0693069B9342F6D327E0EB
:101E2000039B1B687F251D402818491C334D07293B
:101E3000E7D9B2682A40049B1A43B260FFF758FD05
:101E40003169890F25D10F218904CA4A12680A40D5
:101E5000910C07291DD3C91E01228A4005920599BC
:101E6000490812E010210A43A2650021397008E0F8
:101E7000A06D1221884310210143A1650020387014
:101E8000012007B0F0BD0599491E0591059900296B
:101E9000F9D1039B19687F22914301431960B0680F
:101EA000284002990843B06001F02AF90646049DD3
:101EB00020688168294211D001F022F9801B032893
:101EC000F6D3206880682842F2D0A06D102101432B
:101ED000A165E06D2843E0652846D2E7C168009A15
:101EE0001143C160A16D0320814301220A4301987F
:101EF000BAE7C046FC7FFFFF03800000E8FFFF7FDA
:101F00000827014000F20200704770477047704791
:101F1000F0B58DB000230C935422825C04465434F7
:101F20000225012A00D11CE10B91012727700668C8
:101F3000B26804210A4216D1254602690B9C6468E6
:101F40000A94022C15D104200243884882422C4670
:101F50005BD18548C0430B990B68D9430143B06AF4
:101F60000840B06253E0816D20220A43826501255A
:101F7000F5E0079609950A43DC4308947A4E7B4CBA
:101F8000A24258D10B990F683E40079A906A30439D
:101F900016462832099C1060380289680140744A4C
:101FA0000A4008994140706908401043706100255B
:101FB000002F00DBD3E0072082056E480368194636
:101FC00011406D4CA74200D185E06C4CA74200D077
:101FD00087E00124E6051B0200D5B1E003689343C6
:101FE000194331430160664800686649FFF780FC89
:101FF0000C2141430C310C91099C02E00C98401ECD
:102000000C900C980028F9D1A9E00B9803680025E2
:10201000002B00DBA3E0EA480168574A934200D155
:1020200090E0594A934200D18FE0544A934200D045
:1020300095E0052287E01F240A9A029422400F248B
:10204000019406929440089A5440056E25400B9ADC
:102050001268049232420394059551D0049DEA0718
:10206000099C079E52D1AA073B464FD402236A0718
:102070004CD403232A0749D4EA060B4646D4052349
:10208000AA0643D406236A0640D407232A063DD471
:102090000823EA053AD40923AA0537D40A236A0596
:1020A00034D40B232A0531D40C23EA042ED40D2377
:1020B000AA042BD40E236A0428D42A04019B25D415
:1020C0001023EA0322D41123AA031FD46A03D217D0
:1020D000122313401AE001242606DB01099C3ED49A
:1020E00008E00124A6053340274CA74228D1002B45
:1020F000099C34D1036893431943314301602DE0B7
:10210000049DAB0E02990B40099C079E06998B40DB
:10211000059A13430366C0690A9A920882420CD258
:10212000B26A039802402F46BB0E0F201840884029
:102130001043324628320B992DE72F460B992BE797
:10214000099C0CE00322920501E00322D205114014
:1021500007229205036893430B4303600025002088
:102160002070E8B20DB0F0BDFFFF07000400008052
:1021700000FFFF0708270140004000B8001000B032
:1021800038010020400D0300002000B4FEB502908D
:1021900000F0AEFB5B4D2E4624362F461837002448
:1021A0000DE001CE38803888C0433880FF210231ED
:1021B0003888FFF79DFB2919C870BF1C641C022CCE
:1021C000EFD1698B2C8E688B4F4EA14205D2E98DE1
:1021D000884222D90021E9833FE0001B7043698EC9
:1021E0000F1B3946FFF79AFBB042014600DB314630
:1021F00000220192002800DC0199E983688B001B12
:102200007F2460433946FFF789FB7F28014600DBC6
:102210002146002821DC01991FE0AC8D0F1B688B43
:10222000001B70433946FFF779FB38494318DA172A
:102230001A40002800DB1146E983688B011B7F20D0
:1022400048433946FFF76AFB01467F39CA170A40FF
:102250007E21C943002800DB1146A971298B2C8FF0
:10226000288BA14205D2E98E884221D90021A98379
:102270003FE0001B7043698F0F1B3946FFF74EFB91
:10228000B042014600DB31460026002800DC314622
:10229000A983288B001B7F2460433946FFF73EFB50
:1022A0007F28014600DB2146002822DC314620E061
:1022B000AC8E0F1B288B001B464330463946FFF778
:1022C0002DFB12494318DA171A40002800DB11468B
:1022D000A983288B011B7F2048433946FFF71EFB4B
:1022E00001467F39CA170A407E21C943002800DB16
:1022F00011460298697124350222294600F0A2FA9B
:10230000FEBDC046D0000020FF0F000001F0FFFF1F
:102310007047000070B504460125002C46D0A06D22
:1023200002210143A1652046FFF758FB0546002D19
:1023300001D020680CE02046FFF7CCFB0546002DBD
:1023400001D10120A06520688168FB4A0A408260B3
:102350004168174A0A40426016490160C168164A3E
:102360000A40C2604169072291434161816A0026A7
:102370008662016A114A11400162416A114041625C
:10238000C16A1140C1620321890702698A4302615F
:102390007F208004EE490A6882430A60204600F0EC
:1023A000DBF954202654E6652666A665284670BDEE
:1023B00060FCFFFF9F03000000021E8300F000F09E
:1023C000082701407047FEB504462068056841684B
:1023D000029501910D40A9070ED5A06D102108426C
:1023E00004D10120C002A16D0143A1652046FFF781
:1023F0008CFD20680221016069070126770200290F
:1024000001D429072ED5A16D1022114202D1A16D50
:102410003943A16503218902C2680A421CD1A17E09
:10242000002919D101680822114215D081680422BF
:1024300011420AD141680C2291434160FF200230D1
:10244000A16D81433143A16506E0A06D20210143C8
:10245000A165E06D3043E0652046FFF797FE2068F8
:102460000C2101600097290609D53004A16D0143B4
:10247000A165204600F06EF9206880210160E90521
:102480003702002908D57004A16D0143A1652046DB
:10249000FFF73CFD206807600299009F3940019AD0
:1024A000114208D0B004A16D0143A1652046FFF799
:1024B0002EFD20680760E90614D5216B002903D0A2
:1024C000C168032211420BD0B002A16D0143A16586
:1024D000E06D02210143E1652046FFF773FF2068AC
:1024E00010210160A8047503002804D52046FFF7D9
:1024F0000BFD20680560FEBDF0B589B004460027DD
:1025000008970125002C00D113E1234658332046BB
:102510003C300690A06D002808D120461D4600F0F2
:1025200037F92B46542000212154E16501252E075F
:10253000226890683042079219D190687E49014024
:10254000314391607D4800687D4905972F461D46BF
:10255000FFF7CEF9079A2B463D46059F4000801CA9
:1025600001E00898401E089008980028F9D190686A
:10257000304207D1A06D10210143A165E06D012714
:102580003843E06590688108294010461A68102693
:1025900032400A431968002A02D031430125C7E0BE
:1025A000684A114002220A431A6081682942049352
:1025B000039632D1012005900103226B002A00D13D
:1025C0001146A268237E9B031343627ED2031A4303
:1025D000A07E009046031643E36833430B43059AFD
:1025E000D607206901460296B1435205002800DB58
:1025F00011460B432C21615C490019432023E25C06
:10260000012A0FD1009A002A09D0A26D1A43A265AF
:10261000E26D059B1A43E26504E023693FE0059AF9
:1026200012041143636A002B019005D00722920126
:1026300013400B43A16A19430798C268424B1340E9
:102640000B43C3600321880761680A46009002407B
:10265000E36C134306980278012A07D1226C666C5A
:10266000A06C13433343034305980343079802695F
:10267000364E16401E430661029881420ED00098E5
:1026800081420BD005988207914207D00F22920415
:1026900011402F4B1E6896430E431E60019B666BD4
:1026A0000798426907218A43069632430798426198
:1026B000A26B07984669702086431001079A304341
:1026C0005061680583420BD0002B069B18D11D4832
:1026D0000646F3361046826A3243064628360DE037
:1026E000906AE06980001C3016461C2202401548A2
:1026F000F3309040226E02432836069B3260079AE0
:1027000050690840984209D10020E065A06D03217E
:102710008843012101433D46049B09E0A06D12213D
:10272000884303990843A065E16D29435C3423463F
:102730001960284609B0F0BDE8FFFF6F380100209E
:10274000400D0300FDFEFFFF0102DEFF02FCFF1F44
:102750000827014070470000B0B50446206835499D
:10276000884200D0B0BD0120000508490A688243B4
:102770000A60052000070C25294600F037FB206D74
:1027800000F02EF9284600F011FDB0BD40100240C7
:10279000F0B589B0044604A81421FFF7ECF82068CE
:1027A0002449884244D102940320820722490B6ABB
:1027B00093430B6201263205CB681343CB60CB6891
:1027C00013400393039A0A6832430A600968314050
:1027D0000391039905900C20049000270697052487
:1027E000200704A900F08CFB144D80217202F30233
:1027F00020200190124891C52F600C3D28461030D2
:102800000EC00198E86130032862284600F084F980
:10281000002801D0FFF740FA02980565A8620C2451
:10282000002120460A4600F0DDFC204600F0CEFCE8
:1028300009B0F0BD002401403410024044040020DF
:1028400008000240FEB504462668B368022004274B
:102850003B4240D1019102925422A25C254654355C
:10286000012A38D001212970F06808420BD1B068E4
:10287000084205D0B068194A024002201043B060F7
:10288000F0680843F0600E462046FFF759F900282B
:1028900021D1A06D1249014030020843A0650022F9
:1028A000E265206D0F49104B104EC3620163466311
:1028B00021681C230B602A704A68102313434B6065
:1028C0004031019A029B00F07FF921688A68034B2E
:1028D00013403B438B6003B0F0BDC046E8FFFF7F71
:1028E000FEF0FFFFCB1A0008391A0008B11A0008E1
:1028F000F8B504465420205C2646543602250128AB
:1029000030D0012737702046FFF768F80546002DC4
:1029100026D1206D2521415C0025022908D100F037
:1029200025F8002804D0A16D40220A43A26505467F
:10293000206841681022914341602046FFF7CAF8A1
:10294000002D09D10028054606D1FF200230A16DD7
:1029500081433943A16500252068C168B943C1603E
:1029600000203070284601B0F0BD000070B5012194
:10297000002831D02521425C01462531022A25D18B
:10298000046822680E239A432260426C1568134B38
:102990001D4015602568012295432560046C1C25A7
:1029A00025401446AC405B4D2E6826432E60846C57
:1029B000C56C6560046D002C05D025681D40256040
:1029C000436D846D5C600A70002102E00421C163E4
:1029D0000121242200238354084670BDFFFEFFFF1F
:1029E000F8B504460125002C35D027683868012643
:1029F000B0433860724838181421FEF779FF800020
:102A0000206400253D601C2101408E404148016842
:102A1000314301602046FFF7F1F8606C0560A06C5F
:102A2000E16C41606068401E042808D22046FFF730
:102A3000FDF8206D00210160606DA16D41602420D2
:102A40002554E5632520255425656565A565E56262
:102A500025636563A563284601B0F0BDF8B5032181
:102A6000C9432C4A545802681568016C1C230B405A
:102A700004210F469F403E4626400D420FD0002EB7
:102A80000DD013682024234202D113688B431360B6
:102A900020490A46116839431160016B36E002266D
:102AA0009E4031462140AF0716D5002914D0116849
:102AB0002023194206D111680A2399431160252168
:102AC0000122425413490A461168314311602421FE
:102AD00000224254C16A19E008269E402640290778
:102AE00017D5002E15D011680E24A14311600121C5
:102AF0000A469A40074B1C4623681343236024224E
:102B000000238354C16325228154416B002900D0E6
:102B10008847F8BD04000240FEB504460120002CA1
:102B20004BD025200221215425682548281814213E
:102B3000FEF7DEFE800020642868224901402960FB
:102B4000A16827460C37CDCF0197276A0297084323
:102B500010431843304301990843029908432968F8
:102B6000014329602046FFF749F82546253501260F
:102B7000B003A168814202D10020606000E060687B
:102B80003F210140626C1160A16CE26C4A60401E02
:102B9000032809D82046FFF749F8206D002101607D
:102BA000606DA16D416003E0002020656065A06557
:102BB0000020E0632E702421605403B0F0BDC046B5
:102BC000F8FFFDBF0F80FFFFF8B504462420265C08
:102BD000204624300225012E39D0012505702526F6
:102BE000A75D26462536012F11D102203070002026
:102BF000E06320680668AE4306602046FFF72AF8C7
:102C0000226B20680168002A07D00E220AE080218A
:102C1000E16300210170012519E004229143016064
:102C200002680A21114301602902626C13682E04B4
:102C3000334202D013680B431360226D002A02D086
:102C400013680B4313600168294301600025E8B253
:102C500001B0F0BD70B5054600F052FA04460648D2
:102C600000784619681C00D12E4600F049FA001B76
:102C7000B042FAD370BDC0462C010020F0B585B03B
:102C80000D4602464D4C21780220012950D0039276
:102C900000276760012020707D20C6003046FFF7C6
:102CA00029F8002842D12A46029704200399486057
:102CB0000868204D424B042807D1A81C196801431D
:102CC00019603046FFF716F830E00298C0430192D1
:102CD00010608868C200044618E004941968164819
:102CE0000140144621432F46294330461E461960B1
:102CF0000546FEF7FFFF00280FD10834224603994E
:102D00008868049C641C33462E463D46C9680818F2
:102D10008442E2D30298294C04E00199049A0A60A3
:102D2000264C334619680222914319600021217014
:102D300005B0F0BD0200010005E0FEFF80B57D207A
:102D4000C000FEF7D7FF0121C8071D4A13680343DF
:102D500013601068C00F484080BDC046FEB51546E0
:102D60000F460246154C21780220012923D00193F9
:102D7000029200206060012020707D20C600304655
:102D8000FEF7B8FF002814D10298012805D1384673
:102D90002A46019BFEF784FF03E038462946FEF7EA
:102DA0008DFF3046FEF7A6FF05490A68029B9A434D
:102DB0000A600021217003B0F0BDC046A0040020CD
:102DC000142002400648C168002901DB002070473A
:102DD0000449016004490160C068C00F7047C046E3
:102DE0000820024023016745AB89EFCDF0B58BB0D9
:102DF000B64A0323009305230490904200D0009329
:102E00000023D84303901C461A461E46019171E0E8
:102E10000120B04005460D40002D67D00690089275
:102E20000A94182209931A400F2739469140032427
:102E300007963346A343A648C018036E05910B407E
:102E4000603002900526310700260498884201462A
:102E500009D0A148814205D0A0488142009E02D1FC
:102E6000022600E001269640B34218D1039845405F
:102E70008021974A13465A582A405A5084215A585A
:102E80002A405A50596829405960196829401960E8
:102E9000059A4240029801681140016004990A981D
:102EA00084400B461968214319601C21089E31405B
:102EB0008F40039D6F400597079F79088548014023
:102EC00059180A6A059802400A6232463E466C402A
:102ED0009868204098600699694058680840586092
:102EE000D86820400A9CD8600199099B0833A41C2B
:102EF000121D761C0846F0408AD10BB0F0BDC046CA
:102F0000F0B58CB0714A032300930523904200D0A2
:102F100000930023DA43089209930A931F4606910F
:102F20000B90CCE001220792BA401440002C00D153
:102F3000BDE0019404934C68032526462E40731E81
:102F4000012B0397029405951ED828460A998840BC
:102F5000089D68400B998B6803400698C0680A99E1
:102F6000884018430B998860200907990840B840A9
:102F70006A400B994B6813402A4603430B98436001
:102F80000B980699019D05E0032E089A019D01D139
:102F9000029C22E0059B0A9FBB405340C2681A4036
:102FA0008968B940039F1143089AC160022E029CB0
:102FB00013D11C21099801400F20884050407B0804
:102FC000444A13400B9AD3181C6A0440069A1069AD
:102FD0008840204318625468089A2046059E304075
:102FE0000A9B98403146994051400B9A13680B4018
:102FF00003430B9803600B9831040C420699049B21
:1030000055D018241C400F20A040089A50403B4641
:10301000B3432F4AD2180B9B166E06406032052030
:1030200000070027834209D02B48834205D02B4854
:103030008342009F02D1022700E00127A7403743C7
:1030400017602E46344608984440214A17683B468C
:1030500023403743079A10054D68054200D03B4690
:103060001B480360476803463946214037435005F3
:103070000542184600D039464160842147583846F9
:103080002040374353041D4200D03846104A505068
:1030900017468022B85804400643079800040542AA
:1030A00006990B98049B00D03446BC50039F08330C
:1030B000099A121D09920A9A921C0A927F1C0C68A6
:1030C0002246FA4000D02DE70CB0F0BD000C0050B5
:1030D00000180240FCFFFF7F000400500008005071
:1030E00002690A400120002A00D1104670470346B9
:1030F00028331830002A00D00346196070470000BA
:103100001E4880687047C0461C4801788268511884
:103110008160704710B50124200207490A68024304
:103120000A60032000F00AF8002802D100F02AF813
:103130000024204610BDC0460020024070B5054660
:103140000E4E31780124002915D07D20C000FEF7F5
:10315000CFFB01460A480068FEF7CAFB00F046F8BC
:10316000032D08D8002806D10024E0432946224632
:1031700000F038F87560204670BDC0462C01002074
:103180003801002082B08748416801221143416024
:103190004168114001910199110702680A430260D8
:1031A000006808400090009802B07047002809DBD2
:1031B0001F2108400121814003480160BFF34F8F68
:1031C000BFF36F8F7047C04680E100E0002805DB49
:1031D0001F21084001218140014801607047C0461D
:1031E00000E100E080B500F077FD80BD411E0120C8
:1031F0000A0E0DD10748084A516008490B68034080
:1032000003208007184308600020906007211160A8
:103210007047C046FFFFFF0010E000E020ED00E037
:10322000FEE7000070B5434DA868401CA860A86880
:103230009F4C4149884214D3204600F01DF90120DB
:10324000410662688A436260216881432160206888
:1032500008218843206000F047FF00F0E5FD0020D2
:10326000A860A169A069082631420FD1C00630D4F8
:10327000A0690221084235D1A069042108423FD14A
:10328000A169202001423ED1A06938E0000CFE2156
:1032900001402878814221D16888002809D000F0B7
:1032A000B1FD6988254800F053FA0020688000F0DD
:1032B000BBFD01200004A169014216D0A169E269A9
:1032C0003243E26101421AD02068022101432160A9
:1032D00070BDE06910210143E16170BDE0693043D8
:1032E000E06170BD00F080FC70BDE0693043E061DA
:1032F00020680421014321600120E86070BD70BD99
:1033000000F084FC70BDE1690143E161A069012125
:10331000084201D10120A06100F074FD69880748CE
:1033200000F016FA00246C8000F07EFDEC602C6149
:1033300070BDC04640010020E90300008801002064
:1033400081B000200D4906E002460A4312680123BD
:103350005B07C250001DC028F6D109480168012250
:103360001143016000681040009000980548016812
:1033700003220A43026001B07047C04600180008EB
:10338000401002400000014081B001204005054985
:103390000A6802430A60096801400091009801B080
:1033A0007047C0463C100240F0B586B0059002461A
:1033B000243201920246203200920023D843029028
:1033C000049152E001229A401740002F4CD0039301
:1033D0004A68531E3E467643022B17D28B687343CE
:1033E000032575430298454005998C682C401C4381
:1033F00005998C600499CB687B433C464440059911
:103400004D6825401D4305994D6000E002980499E0
:103410000C6974430323734343400598C5681D40FA
:10342000254304990598C560059C022A16D14A696E
:10343000FF2F03D837467F43009D03E03F0A7F43B9
:103440007F43019D02987A430F247C4344402F68B8
:10345000274017432F6004994A68059C5643226809
:103460001A4032432260039B5B1C0F683A46DA40E5
:10347000A8D1002006B0F0BD0146012082050B4B0B
:10348000994206D0AE4A91420CD10120420509482A
:1034900000E0054808490B6813430B600A680240C6
:1034A0000A6000207047C046FFFFBFFF0058004081
:1034B00000540040FFFFDFFF2C100240F0B503680E
:1034C0000122934303608B68CC681F252D02066898
:1034D000AE4324021C43344304604B680361036819
:1034E0001343036084680F4B1C4084600C698D6932
:1034F000254386680C4F37402F438760002C03D04C
:10350000D2038468144384600A6803242405056890
:10351000A54315430560496942681A400A43426061
:103520000020F0BDFF7FFFFF00F8FFFF81B0534890
:103530000168022211430160006810400090009869
:1035400001B07047014908607047C046380100204B
:103550007FB52C212148012343543C2143540021B1
:103560000422018383760224C461416281620724BC
:103570000163446384631C24194D5E059B0405604C
:1035800043608160C16006614261039102910191D3
:103590008022046442648164C164FEF7ADFF0028A8
:1035A00001D0FEF779FB002002900E4901910390B3
:1035B0000A4801A9FEF7ACFC002801D0FEF76CFB1D
:1035C0000420029008480190044801A9FEF7A0FCDD
:1035D000002801D0FEF760FB7FBDC046E00300205D
:1035E00000240140040000080800000C1CB5094834
:1035F00001680122114301600068104001900198A8
:103600000924002120460A46FFF7ECFD2046FFF77B
:10361000DDFD1CBD38100240F0B587B000240694D3
:103620000594164801680227394301600168394052
:103630000191019901680126314301600068304021
:103640000190019805200507102100912846224687
:10365000FFF74DFD03940297049402AF28463946C4
:10366000FFF74EFC039600980290049405942846B8
:103670003946FFF745FC07B0F0BDC04634100240A4
:10368000F0B58FB00320000328490A6882430A601E
:10369000FFF74CFF022001900390012630020290B8
:1036A000002704970596069606240794204802AD45
:1036B0002946FFF779FE7002029001980390049763
:1036C0000596069607941A482946FFF76DFEFFF700
:1036D0005BFEFF20000617490A6882430A60F00576
:1036E000154908601548099008970A970B97B2206A
:1036F0000C900D970E97124C08A92046FFF7DEFE9E
:103700007006616801436160E0680E490140E16054
:10371000F003E1688143E160F004216881432160A6
:1037200070042168814321600FB0F0BD5410024045
:103730000004005014E400E000E100E0BC7D7010E3
:103740000054004001F8FFFFFEE77047704700009B
:10375000F0B593B00E460546002006900590049003
:103760000390022E00D2B4E12878FD2810D0FF2863
:103770005FD1022E00D0DDE101202856002800DABA
:10378000D8E1F949087000F021FB00F0ADFCD1E16F
:103790006878012800D0CDE1FB4F0124BC70B878D7
:1037A000002800D1C6E101960295F84E3046FFF799
:1037B00063FE6006716881437160E54330682840AC
:1037C00030603068082188433060F14E3046FEF7A3
:1037D000A1FDF0480168294001600920FFF7E6FCDF
:1037E0003046FFF785F800F04FFBF94DF94E210206
:1037F0003046FFF775FC002805D161023046FFF71F
:103800006FFC002807D0F868401CF860F868A842F0
:10381000EDD90020B870681CF968814200D342E1FC
:10382000BFF34F8FEC48ED490160BFF34F8F00BFEE
:10383000FDE7FC210140302948D10FA90918303992
:1038400003AA101830386A1C731E07E014780C7035
:1038500001240470491C401C521C5B1E002BF5D136
:1038600003A80078002805D0D748006980000F9988
:10387000DB4A115403A84078002807D0D2480069D9
:103880008000D74908180FA94978417003A88078AB
:10389000002807D0CC4800698000D14908180FA93A
:1038A00089788170C84801698B00CD4CE258E318D3
:1038B00003ACE478002C00D1EEE0FF242406A24300
:1038C0000FACE478240614431C60E6E0F0210140CC
:1038D000402900D02EE10321C9430A010FA989180C
:1038E000091803AB9A1810186A1C731E07E01478A5
:1038F0000C7001240470491C401C521C5B1E002BE0
:10390000F5D103A80078002808D0FF200002AE49B6
:103910008A8D02400FA800781043888503A840785C
:10392000002807D02C20A849085C0FAA5278120260
:1039300002438A8503A88078002808D0FF2000026F
:10394000A149CA8D02400FA880781043C88503A8FA
:10395000C078002807D02E209B49085C0FAAD27897
:1039600012020243CA8503A80079002808D0FF206C
:10397000000295490A8E02400FA80079104308867C
:1039800003A84079002807D030208F49085C0FAA8F
:103990005279120202430A8603A88079002808D0CF
:1039A000FF20000288494A8E02400FA88079104308
:1039B000488603A8C079002807D032208249085CD5
:1039C0000FAAD279120202434A8603A8007A00287D
:1039D00008D0FF2000027C498A8E02400FA8007A9E
:1039E0001043888603A8407A002807D034207649FF
:1039F000085C0FAA527A120202438A8603A8807AD0
:103A0000002808D0FF2000026F49CA8E02400FA88C
:103A1000807A1043C88603A8C07A002807D03620D1
:103A2000F749085C0FAAD27A12020243CA8603A899
:103A3000007B002808D0FF200002F1490A8F0240D5
:103A40000FA8007B1043088703A8407B002807D0FD
:103A50003820EB49085C0FAA527B120202430A8706
:103A600003A8807B002808D0FF200002E4494A8F89
:103A700002400FA8807B1043488703A8C07B002822
:103A800007D03A20DE49085C0FAAD27B120202431B
:103A90004A8700F09BF91CE014464461082918D8B5
:103AA000491C016115E0FFF7A1FDFFF751FD00F092
:103AB0001BFB464E3046FEF775F93946243102228B
:103AC0003046FEF7BFFE00F0AFF90020F860029D1F
:103AD000019E012E2ED12978FC2905D0FE2909D07E
:103AE000FF290BD1C64807E03E480178C44801626F
:103AF000203001E0C248401C012119E0032908D808
:103B0000BF48428B07AB1A80008B5880581804229C
:103B10000CE0FE20084010280ED1B948027907AB0E
:103B20001A70C0785870581810381222511A89B279
:103B300000F090F913B0F0BD202909D1052000074D
:103B40000221FFF7CDFA07AA107001211046EFE716
:103B50003029EFD3332909D8EF484069079007A8E7
:103B6000401830383422E1E7D00000204029E1D36A
:103B70004F2911D8E8482C3007AA1346F0C8F0C3E3
:103B8000501840385022D1E7D000002000540040A7
:103B9000E003002038100240532909D8DE48C28BC8
:103BA00007AB1A80808B5880581850385422BDE7D4
:103BB0006028BFD1D848827907AB1A704079587015
:103BC000581860386222B1E7D0000020E0030020DE
:103BD0005FEA0000000400500CED00E00400FA056C
:103BE00060010020FF170008A6488188A44A515CA4
:103BF000054A11608188491C81808188C288914270
:103C000001D3002181807047285400400448006897
:103C10009C494A88531C4B80024988547047C046CF
:103C2000245400408801002080B5FFF76DFA80BD64
:103C3000B0B523490B6807208343022213430B606E
:103C40000B680340022BFBD101231C021D490D68A8
:103C500025430D609C020D682542FBD0CC681A4DAF
:103C600025401A4C2C43CC601C060D6825430D6082
:103C70001C07CD682543CD605C060D682542FBD04E
:103C80000F231B028C689C438C608B688343134317
:103C90008B608A6838231340102BFAD100038A689E
:103CA00082438A600A48FFF74DFC0320FFF746FA7B
:103CB000002803D0EFF3108072B6FEE7B0BDC04617
:103CC00000200240001002408C80FF1F02080020EC
:103CD0000090D00370470000002805DB0322034654
:103CE00093430C4A9A1806E00F220240083A032335
:103CF0009A43074BD218C000182303408801C0B272
:103D00009840FF21994013688B4303431360704729
:103D10001CED00E000E400E010B518212A4A4EE056
:103D2000102313604B1E01249C4000BF00BF00BF46
:103D300000BF00BF00BF00BF00BF00BF00BF00BF8B
:103D400000BF044220D000BF00BF00BF00BF00BFC3
:103D500000BF00BF00BF00BF00BF00BF00BF00BF6B
:103D600000BF00BF00BF00BF00BF00BF00BF00BF5B
:103D700000BF00BF00BF1023136100BF00BF00BF22
:103D800000BF00BF00BF19E01023136100BF00BFD8
:103D900000BF00BF00BF00BF00BF00BF00BF00BF2B
:103DA00000BF00BF00BF00BF00BF00BF00BF00BF1B
:103DB00000BF00BF00BF00BF00BF00BF491E0029F9
:103DC00000D0ADE710BDC04618000050B0B5874D1B
:103DD0002C463C342021204600F038F900280DD034
:103DE00028783C21685428463D302C35102229463D
:103DF000FDF7A8FD2021204600F0E2F9B0BDC04645
:103E0000D0000020EC48016808229143016001685D
:103E10001022914301600168802291430160016892
:103E20002022914301607047E348016801220A4360
:103E30000260016808220A430260016810220A43F6
:103E40000260016880220A430260016820220A435E
:103E50000260704710B50C460146E2084B20C000D6
:103E60004B2A00D30446002909D0002C07D004486F
:103E70002246FDF767FD944800218180C48010BD73
:103E8000BC0400204001002070B586B000240594D9
:103E90000D48016802221143016000681040009043
:103EA000009803200502BF4E304629462246FFF700
:103EB0001EF90294019501200390049401A9304653
:103EC000FFF71EF806B070BD34100240B0B5474C85
:103ED00025463C352021284600F0B8F800280AD0B5
:103EE0003C20205C207020462C303D34102221469E
:103EF000FDF728FDB0BD3C206321215421702046F0
:103F00003D302C3410222146FDF71CFD202128468F
:103F100000F056F9B0BDC046D0000020F8B5FFF75C
:103F20000FFAFFF7F7F8FFF783FEFFF775FBFFF7D0
:103F30005DFBFFF70DFBFFF7A3FBFFF7C7FF2A4C65
:103F40002046FDF72FFF294E31462431022220461C
:103F5000FEF778FC0120009000F0B8F800F0C4F8FB
:103F6000FFF762FF944D0020214908602148006856
:103F700000280DD0B468FFF7C3F8844208D21E4869
:103F800001460868401C0860FFF7BAF80A30B060C4
:103F900019480068332816D32846FFF76DFA009AAF
:103FA00050066968814369602868904328602868E2
:103FB00008218843286000F097F8FFF735FF7D203F
:103FC0008000FEF747FE3769002FCCD00B4C06E08F
:103FD00002CC002000F014F800F022F87F1E002F21
:103FE000F6D100203061BEE7E0030020D0000020C1
:103FF000480100204C0100205001002060010020F9
:1040000010B5FF2213040C021C4012020B0A1340CD
:10401000C9B219432143334A52688000115010BD80
:10402000B0B5EFF3108072B600242E4D05E069683C
:1040300080000858FFF770FE641CE978E0B28842FF
:10404000F5D300F01DF862B6B0BDC04670B58B4B1D
:104050001C880022884DAC420FD15C88002C0CD00B
:104060008C4200D30C460021854A03E0CD182E7AFD
:104070004654A918A142F9D32246104670BDC04645
:10408000002018E000BF00BF00BF00BF00BF00BF9E
:1040900000BF00BF00BF00BF00BF00BF00BF00BF28
:1040A00000BF00BF00BF00BF00BF00BF00BF00BF18
:1040B00000BF00BF401CC1B27129E3D370470000AC
:1040C00040000149087070474001002010B50446C7
:1040D000FDF746FE04212046FDF758FC01494860E3
:1040E000CC7010BD54010020F0B58FB00320000348
:1040F0002B490A6882430A60FFF718FA02200190F0
:104100000390012630020290002704970596069638
:1041100006240794234802AD2946FFF745F97002AB
:1041200002900198039004970596069607941D48FF
:104130002946FFF739F9FFF727F9FF2000061A494A
:104140000A6882430A60F005184908601848099017
:1041500008970A970B970D970E97164D28784000F1
:104160000C90154C08A92046FFF7A8F97006616865
:1041700001436160E06811490140E160F003E168DA
:104180008143E160F004216881432160700421686B
:10419000814321602878FFF793FF0FB0F0BDC04640
:1041A000541002400004005014E400E000E100E07C
:1041B000BC7D7010D00000200054004001F8FFFFCB
:1041C000F0B587B00F4605460124E002391D0026F0
:1041D00081424DD8FEF7F6FD022003900F20059096
:1041E00006940026029603A802A9FEF747FD0028C0
:1041F0003ED13804204A02430120204E3C4600278D
:1042000031463B46FEF7AAFD0194E4081BE0E95D58
:10421000E819427812020A43817809041143C278EE
:1042200012060A43017943791B020B438179090481
:104230001943C07903060B43B91908310120FEF771
:104240008DFD0837641E002CE1D100210C48019C33
:10425000A1420AD28A191318695C127A8A42194655
:10426000F6D0FEF76BFD002602E0FEF767FD0126A3
:10427000304607B0F0BDC04655AA000000780008DF
:104280000188FFF702E008C8121F08C1002AFAD10E
:1042900070477047002001E001C1121F002AFBD1C6
:1042A00070470000F0B50B30C108C900144F00265C
:1042B000144A0FE003688B420BD38B4205D95C1A7A
:1042C0004318456830C3083B00E04368136002C0F0
:1042D00004E0021D10680028ECD13046002803D10C
:1042E0003868002801D00020F0BD064A064810605A
:1042F000064A121AD208D20044C001203860D7E71B
:10430000C4000020C00000201C0700201809002065
:1043100030430008C00000208000000084420008F4
:10432000B043000840010020D80B00009442000870
:10433000000000000000000000000000000000007D
:10434000000100000000000000000000000000006C
:10435000000000000000000000000000000000005D
:104360000000000000000000000000008200328217
:10437000D084A0FF82003282D084A0FF0000000021
:10438000000000000000000000000000000000002D
:10439000000000000000000000000000010000001C
:1043A00004000000000000000024F40000000000F1
:04000005080018C116
:00000001FF
